{
  "contractName": "SupplyChain",
  "abi": [
    {
      "inputs": [],
      "stateMutability": "nonpayable",
      "type": "constructor"
    },
    {
      "anonymous": false,
      "inputs": [
        {
          "indexed": true,
          "internalType": "address",
          "name": "_address",
          "type": "address"
        },
        {
          "indexed": false,
          "internalType": "bytes32",
          "name": "name",
          "type": "bytes32"
        }
      ],
      "name": "UserRegister",
      "type": "event"
    },
    {
      "anonymous": false,
      "inputs": [
        {
          "indexed": false,
          "internalType": "address",
          "name": "buyer",
          "type": "address"
        },
        {
          "indexed": true,
          "internalType": "address",
          "name": "seller",
          "type": "address"
        },
        {
          "indexed": false,
          "internalType": "address",
          "name": "packageAddr",
          "type": "address"
        },
        {
          "indexed": false,
          "internalType": "bytes",
          "name": "signature",
          "type": "bytes"
        },
        {
          "indexed": true,
          "internalType": "uint256",
          "name": "timestamp",
          "type": "uint256"
        }
      ],
      "name": "buyEvent",
      "type": "event"
    },
    {
      "anonymous": false,
      "inputs": [
        {
          "indexed": true,
          "internalType": "address",
          "name": "buyer",
          "type": "address"
        },
        {
          "indexed": false,
          "internalType": "address",
          "name": "seller",
          "type": "address"
        },
        {
          "indexed": false,
          "internalType": "address",
          "name": "packageAddr",
          "type": "address"
        },
        {
          "indexed": false,
          "internalType": "bytes",
          "name": "signature",
          "type": "bytes"
        },
        {
          "indexed": true,
          "internalType": "uint256",
          "name": "timestamp",
          "type": "uint256"
        }
      ],
      "name": "receivedEvent",
      "type": "event"
    },
    {
      "anonymous": false,
      "inputs": [
        {
          "indexed": true,
          "internalType": "address",
          "name": "buyer",
          "type": "address"
        },
        {
          "indexed": false,
          "internalType": "address",
          "name": "seller",
          "type": "address"
        },
        {
          "indexed": false,
          "internalType": "address",
          "name": "packageAddr",
          "type": "address"
        },
        {
          "indexed": false,
          "internalType": "bytes",
          "name": "signature",
          "type": "bytes"
        },
        {
          "indexed": true,
          "internalType": "uint256",
          "name": "timestamp",
          "type": "uint256"
        }
      ],
      "name": "respondEvent",
      "type": "event"
    },
    {
      "anonymous": false,
      "inputs": [
        {
          "indexed": false,
          "internalType": "address",
          "name": "seller",
          "type": "address"
        },
        {
          "indexed": false,
          "internalType": "address",
          "name": "buyer",
          "type": "address"
        },
        {
          "indexed": true,
          "internalType": "address",
          "name": "packageAddr",
          "type": "address"
        },
        {
          "indexed": false,
          "internalType": "bytes",
          "name": "signature",
          "type": "bytes"
        },
        {
          "indexed": true,
          "internalType": "uint256",
          "name": "timestamp",
          "type": "uint256"
        }
      ],
      "name": "sendEvent",
      "type": "event"
    },
    {
      "inputs": [
        {
          "internalType": "address",
          "name": "",
          "type": "address"
        },
        {
          "internalType": "uint256",
          "name": "",
          "type": "uint256"
        }
      ],
      "name": "MedicineDtoC",
      "outputs": [
        {
          "internalType": "address",
          "name": "",
          "type": "address"
        }
      ],
      "stateMutability": "view",
      "type": "function"
    },
    {
      "inputs": [
        {
          "internalType": "address",
          "name": "",
          "type": "address"
        }
      ],
      "name": "MedicineDtoCTxContract",
      "outputs": [
        {
          "internalType": "address",
          "name": "",
          "type": "address"
        }
      ],
      "stateMutability": "view",
      "type": "function"
    },
    {
      "inputs": [
        {
          "internalType": "address",
          "name": "",
          "type": "address"
        },
        {
          "internalType": "uint256",
          "name": "",
          "type": "uint256"
        }
      ],
      "name": "MedicineWtoD",
      "outputs": [
        {
          "internalType": "address",
          "name": "",
          "type": "address"
        }
      ],
      "stateMutability": "view",
      "type": "function"
    },
    {
      "inputs": [
        {
          "internalType": "address",
          "name": "",
          "type": "address"
        }
      ],
      "name": "MedicineWtoDTxContract",
      "outputs": [
        {
          "internalType": "address",
          "name": "",
          "type": "address"
        }
      ],
      "stateMutability": "view",
      "type": "function"
    },
    {
      "inputs": [
        {
          "internalType": "address",
          "name": "",
          "type": "address"
        },
        {
          "internalType": "uint256",
          "name": "",
          "type": "uint256"
        }
      ],
      "name": "MedicinesAtDistributor",
      "outputs": [
        {
          "internalType": "address",
          "name": "",
          "type": "address"
        }
      ],
      "stateMutability": "view",
      "type": "function"
    },
    {
      "inputs": [
        {
          "internalType": "address",
          "name": "",
          "type": "address"
        },
        {
          "internalType": "uint256",
          "name": "",
          "type": "uint256"
        }
      ],
      "name": "MedicinesAtWholesaler",
      "outputs": [
        {
          "internalType": "address",
          "name": "",
          "type": "address"
        }
      ],
      "stateMutability": "view",
      "type": "function"
    },
    {
      "inputs": [
        {
          "internalType": "uint256",
          "name": "",
          "type": "uint256"
        }
      ],
      "name": "allAddresses",
      "outputs": [
        {
          "internalType": "address",
          "name": "",
          "type": "address"
        }
      ],
      "stateMutability": "view",
      "type": "function"
    },
    {
      "inputs": [
        {
          "internalType": "address",
          "name": "",
          "type": "address"
        },
        {
          "internalType": "uint256",
          "name": "",
          "type": "uint256"
        }
      ],
      "name": "manufacturerMedicines",
      "outputs": [
        {
          "internalType": "address",
          "name": "",
          "type": "address"
        }
      ],
      "stateMutability": "view",
      "type": "function"
    },
    {
      "inputs": [
        {
          "internalType": "address",
          "name": "",
          "type": "address"
        },
        {
          "internalType": "uint256",
          "name": "",
          "type": "uint256"
        }
      ],
      "name": "manufacturerRawMaterials",
      "outputs": [
        {
          "internalType": "address",
          "name": "",
          "type": "address"
        }
      ],
      "stateMutability": "view",
      "type": "function"
    },
    {
      "inputs": [
        {
          "internalType": "address",
          "name": "",
          "type": "address"
        },
        {
          "internalType": "uint256",
          "name": "",
          "type": "uint256"
        }
      ],
      "name": "supplierRawMaterials",
      "outputs": [
        {
          "internalType": "address",
          "name": "",
          "type": "address"
        }
      ],
      "stateMutability": "view",
      "type": "function"
    },
    {
      "inputs": [
        {
          "internalType": "address",
          "name": "",
          "type": "address"
        }
      ],
      "name": "userInfo",
      "outputs": [
        {
          "internalType": "bytes32",
          "name": "name",
          "type": "bytes32"
        },
        {
          "internalType": "enum SupplyChain.roles",
          "name": "role",
          "type": "uint8"
        },
        {
          "internalType": "address",
          "name": "userAddr",
          "type": "address"
        }
      ],
      "stateMutability": "view",
      "type": "function"
    },
    {
      "inputs": [
        {
          "internalType": "address",
          "name": "buyer",
          "type": "address"
        },
        {
          "internalType": "address",
          "name": "seller",
          "type": "address"
        },
        {
          "internalType": "address",
          "name": "packageAddr",
          "type": "address"
        },
        {
          "internalType": "bytes",
          "name": "signature",
          "type": "bytes"
        }
      ],
      "name": "requestProduct",
      "outputs": [],
      "stateMutability": "nonpayable",
      "type": "function"
    },
    {
      "inputs": [
        {
          "internalType": "address",
          "name": "buyer",
          "type": "address"
        },
        {
          "internalType": "address",
          "name": "seller",
          "type": "address"
        },
        {
          "internalType": "address",
          "name": "packageAddr",
          "type": "address"
        },
        {
          "internalType": "bytes",
          "name": "signature",
          "type": "bytes"
        }
      ],
      "name": "respondToEntity",
      "outputs": [],
      "stateMutability": "nonpayable",
      "type": "function"
    },
    {
      "inputs": [
        {
          "internalType": "address",
          "name": "buyer",
          "type": "address"
        },
        {
          "internalType": "address",
          "name": "seller",
          "type": "address"
        },
        {
          "internalType": "address",
          "name": "packageAddr",
          "type": "address"
        },
        {
          "internalType": "bytes",
          "name": "signature",
          "type": "bytes"
        }
      ],
      "name": "sendPackageToEntity",
      "outputs": [],
      "stateMutability": "nonpayable",
      "type": "function"
    },
    {
      "inputs": [
        {
          "internalType": "bytes32",
          "name": "name",
          "type": "bytes32"
        },
        {
          "internalType": "string[]",
          "name": "loc",
          "type": "string[]"
        },
        {
          "internalType": "uint256",
          "name": "role",
          "type": "uint256"
        },
        {
          "internalType": "address",
          "name": "_userAddr",
          "type": "address"
        }
      ],
      "name": "registerUser",
      "outputs": [],
      "stateMutability": "nonpayable",
      "type": "function"
    },
    {
      "inputs": [
        {
          "internalType": "uint256",
          "name": "_role",
          "type": "uint256"
        },
        {
          "internalType": "address",
          "name": "_addr",
          "type": "address"
        }
      ],
      "name": "changeUserRole",
      "outputs": [
        {
          "internalType": "string",
          "name": "",
          "type": "string"
        }
      ],
      "stateMutability": "nonpayable",
      "type": "function"
    },
    {
      "inputs": [
        {
          "internalType": "address",
          "name": "_address",
          "type": "address"
        }
      ],
      "name": "getUserInfo",
      "outputs": [
        {
          "components": [
            {
              "internalType": "bytes32",
              "name": "name",
              "type": "bytes32"
            },
            {
              "internalType": "string[]",
              "name": "userLoc",
              "type": "string[]"
            },
            {
              "internalType": "enum SupplyChain.roles",
              "name": "role",
              "type": "uint8"
            },
            {
              "internalType": "address",
              "name": "userAddr",
              "type": "address"
            }
          ],
          "internalType": "struct SupplyChain.userData",
          "name": "",
          "type": "tuple"
        }
      ],
      "stateMutability": "view",
      "type": "function"
    },
    {
      "inputs": [],
      "name": "getAllUsers",
      "outputs": [
        {
          "components": [
            {
              "internalType": "bytes32",
              "name": "name",
              "type": "bytes32"
            },
            {
              "internalType": "string[]",
              "name": "userLoc",
              "type": "string[]"
            },
            {
              "internalType": "enum SupplyChain.roles",
              "name": "role",
              "type": "uint8"
            },
            {
              "internalType": "address",
              "name": "userAddr",
              "type": "address"
            }
          ],
          "internalType": "struct SupplyChain.userData[]",
          "name": "",
          "type": "tuple[]"
        }
      ],
      "stateMutability": "view",
      "type": "function"
    },
    {
      "inputs": [
        {
          "internalType": "bytes32",
          "name": "_description",
          "type": "bytes32"
        },
        {
          "internalType": "uint256",
          "name": "_quantity",
          "type": "uint256"
        },
        {
          "internalType": "address",
          "name": "_transporterAddr",
          "type": "address"
        },
        {
          "internalType": "address",
          "name": "_manufacturerAddr",
          "type": "address"
        }
      ],
      "name": "createRawMaterialPackage",
      "outputs": [
        {
          "internalType": "address",
          "name": "",
          "type": "address"
        }
      ],
      "stateMutability": "nonpayable",
      "type": "function"
    },
    {
      "inputs": [],
      "name": "getNoOfPackagesOfSupplier",
      "outputs": [
        {
          "internalType": "uint256",
          "name": "",
          "type": "uint256"
        }
      ],
      "stateMutability": "view",
      "type": "function"
    },
    {
      "inputs": [],
      "name": "getAllPackages",
      "outputs": [
        {
          "internalType": "address[]",
          "name": "",
          "type": "address[]"
        }
      ],
      "stateMutability": "view",
      "type": "function"
    },
    {
      "inputs": [
        {
          "internalType": "address",
          "name": "_addr",
          "type": "address"
        },
        {
          "internalType": "uint256",
          "name": "transportertype",
          "type": "uint256"
        },
        {
          "internalType": "address",
          "name": "cid",
          "type": "address"
        }
      ],
      "name": "transporterHandlePackage",
      "outputs": [],
      "stateMutability": "nonpayable",
      "type": "function"
    },
    {
      "inputs": [
        {
          "internalType": "address",
          "name": "_addr",
          "type": "address"
        },
        {
          "internalType": "address",
          "name": "_manufacturerAddress",
          "type": "address"
        },
        {
          "internalType": "address",
          "name": "_sellerAddr",
          "type": "address"
        },
        {
          "internalType": "bytes",
          "name": "signature",
          "type": "bytes"
        }
      ],
      "name": "manufacturerReceivedPackage",
      "outputs": [],
      "stateMutability": "nonpayable",
      "type": "function"
    },
    {
      "inputs": [],
      "name": "getAllRawMaterials",
      "outputs": [
        {
          "internalType": "address[]",
          "name": "",
          "type": "address[]"
        }
      ],
      "stateMutability": "view",
      "type": "function"
    },
    {
      "inputs": [
        {
          "internalType": "address",
          "name": "_manufacturerAddr",
          "type": "address"
        },
        {
          "internalType": "bytes32",
          "name": "_description",
          "type": "bytes32"
        },
        {
          "internalType": "address[]",
          "name": "_rawAddr",
          "type": "address[]"
        },
        {
          "internalType": "uint256",
          "name": "_quantity",
          "type": "uint256"
        },
        {
          "internalType": "address[]",
          "name": "_transporterAddr",
          "type": "address[]"
        }
      ],
      "name": "manufacturerCreatesMedicine",
      "outputs": [],
      "stateMutability": "nonpayable",
      "type": "function"
    },
    {
      "inputs": [],
      "name": "getAllCreatedMedicines",
      "outputs": [
        {
          "internalType": "address[]",
          "name": "",
          "type": "address[]"
        }
      ],
      "stateMutability": "view",
      "type": "function"
    },
    {
      "inputs": [
        {
          "internalType": "address",
          "name": "_address",
          "type": "address"
        },
        {
          "internalType": "address",
          "name": "_sellerAddr",
          "type": "address"
        },
        {
          "internalType": "bytes",
          "name": "signature",
          "type": "bytes"
        }
      ],
      "name": "wholesalerReceivedMedicine",
      "outputs": [],
      "stateMutability": "nonpayable",
      "type": "function"
    },
    {
      "inputs": [
        {
          "internalType": "address",
          "name": "_address",
          "type": "address"
        },
        {
          "internalType": "address",
          "name": "transporter",
          "type": "address"
        },
        {
          "internalType": "address",
          "name": "receiver",
          "type": "address"
        }
      ],
      "name": "transferMedicineWtoD",
      "outputs": [],
      "stateMutability": "nonpayable",
      "type": "function"
    },
    {
      "inputs": [
        {
          "internalType": "uint256",
          "name": "index",
          "type": "uint256"
        }
      ],
      "name": "getBatchIdByIndexWD",
      "outputs": [
        {
          "internalType": "address",
          "name": "packageID",
          "type": "address"
        }
      ],
      "stateMutability": "view",
      "type": "function"
    },
    {
      "inputs": [
        {
          "internalType": "address",
          "name": "_address",
          "type": "address"
        }
      ],
      "name": "getSubContractWD",
      "outputs": [
        {
          "internalType": "address",
          "name": "SubContractWD",
          "type": "address"
        }
      ],
      "stateMutability": "view",
      "type": "function"
    },
    {
      "inputs": [],
      "name": "getAllMedicinesAtWholesaler",
      "outputs": [
        {
          "internalType": "address[]",
          "name": "",
          "type": "address[]"
        }
      ],
      "stateMutability": "view",
      "type": "function"
    },
    {
      "inputs": [
        {
          "internalType": "address",
          "name": "_address",
          "type": "address"
        },
        {
          "internalType": "address",
          "name": "cid",
          "type": "address"
        },
        {
          "internalType": "address",
          "name": "_sellerAddr",
          "type": "address"
        },
        {
          "internalType": "bytes",
          "name": "signature",
          "type": "bytes"
        }
      ],
      "name": "distributorReceivedMedicine",
      "outputs": [],
      "stateMutability": "nonpayable",
      "type": "function"
    },
    {
      "inputs": [
        {
          "internalType": "address",
          "name": "_address",
          "type": "address"
        },
        {
          "internalType": "address",
          "name": "transporter",
          "type": "address"
        },
        {
          "internalType": "address",
          "name": "receiver",
          "type": "address"
        }
      ],
      "name": "distributorTransferMedicinetoCustomer",
      "outputs": [],
      "stateMutability": "nonpayable",
      "type": "function"
    },
    {
      "inputs": [],
      "name": "getBatchesCountDC",
      "outputs": [
        {
          "internalType": "uint256",
          "name": "count",
          "type": "uint256"
        }
      ],
      "stateMutability": "view",
      "type": "function"
    },
    {
      "inputs": [
        {
          "internalType": "uint256",
          "name": "index",
          "type": "uint256"
        }
      ],
      "name": "getBatchIdByIndexDC",
      "outputs": [
        {
          "internalType": "address",
          "name": "packageID",
          "type": "address"
        }
      ],
      "stateMutability": "view",
      "type": "function"
    },
    {
      "inputs": [
        {
          "internalType": "address",
          "name": "_address",
          "type": "address"
        }
      ],
      "name": "getSubContractDC",
      "outputs": [
        {
          "internalType": "address",
          "name": "SubContractDP",
          "type": "address"
        }
      ],
      "stateMutability": "view",
      "type": "function"
    },
    {
      "inputs": [],
      "name": "getAllMedicinesAtDistributor",
      "outputs": [
        {
          "internalType": "address[]",
          "name": "",
          "type": "address[]"
        }
      ],
      "stateMutability": "view",
      "type": "function"
    },
    {
      "inputs": [
        {
          "internalType": "address",
          "name": "p",
          "type": "address"
        },
        {
          "internalType": "bytes32",
          "name": "hash",
          "type": "bytes32"
        },
        {
          "internalType": "uint8",
          "name": "v",
          "type": "uint8"
        },
        {
          "internalType": "bytes32",
          "name": "r",
          "type": "bytes32"
        },
        {
          "internalType": "bytes32",
          "name": "s",
          "type": "bytes32"
        }
      ],
      "name": "verify",
      "outputs": [
        {
          "internalType": "bool",
          "name": "",
          "type": "bool"
        }
      ],
      "stateMutability": "pure",
      "type": "function"
    }
  ],
  "bytecode": "0x608060405234801561001057600080fd5b50600080546001600160a01b03191633179055615e90806100326000396000f3fe60806040523480156200001157600080fd5b5060043610620002445760003560e01c806396598038116200013b578063d06f7b5511620000c9578063f06822d81162000087578063f06822d8146200056a578063fac0992d1462000581578063fc7e01f3146200058b578063fd302c3514620005a2578063ff2b065a14620005b95762000244565b8063d06f7b551462000502578063dacc53701462000519578063e0cf92fe1462000530578063e2842d791462000547578063e3938b7014620005605762000244565b806396598038146200044b5780639af035a31462000462578063a205a1231462000479578063a999cca11462000483578063b0fc028d146200049a578063b8b16ca314620004b1578063be7ef9c014620004c8578063c22470ea14620004df578063cd55152e14620004f85762000244565b8063381cb0dc11620001d7578063798a826f1162000195578063798a826f14620003c95780637a0689f014620003e05780638ccc8db714620003f75780638dfa742d146200040e5780639100978614620004255762000244565b8063381cb0dc1462000338578063412afbaf146200034f578063506535f3146200036657806362c1fe39146200038c5780636386c1c714620003a35762000244565b8063050e70db146200024957806306db832414620002785780630a421f0f146200028f578063164bcd5b14620002a85780631959a00214620002bf5780631f90ddaf14620002e757806327ddcd2514620003005780633475901614620003175780633668669a146200032e575b600080fd5b620002606200025a3660046200220b565b620005d0565b6040516200026f9190620025c8565b60405180910390f35b62000260620002893660046200220b565b62000606565b6200029962000620565b6040516200026f9190620026e1565b62000260620002b936600462002411565b620006f5565b620002d6620002d036600462001fc8565b6200077b565b6040516200026f939291906200276e565b620002fe620002f836600462002306565b620007a7565b005b620002fe6200031136600462002122565b620008ac565b620002606200032836600462001fc8565b62000933565b6200029962000951565b620002fe62000349366004620020bb565b62000a1e565b62000260620003603660046200220b565b62000b5a565b6200037d62000377366004620021b1565b62000b74565b6040516200026f91906200275a565b620002606200039d36600462001fc8565b62000be7565b620003ba620003b436600462001fc8565b62000c05565b6040516200026f91906200298e565b62000260620003da36600462001fc8565b62000d5a565b620002fe620003f13660046200203f565b62000d75565b62000260620004083660046200220b565b6200103c565b620002606200041f3660046200220b565b62001056565b6200043c620004363660046200242a565b62001070565b6040516200026f9190620027bd565b620002fe6200045c3660046200203f565b620010ff565b620002606200047336600462002411565b620011ca565b620002996200122c565b62000260620004943660046200220b565b620012f9565b62000260620004ab36600462001fc8565b62001313565b620002fe620004c23660046200203f565b6200132e565b620002fe620004d936600462002239565b6200136e565b620004e96200152d565b6040516200026f919062002765565b620004e962001540565b620002fe620005133660046200203f565b6200159a565b620002606200052a36600462002411565b620015da565b620002fe620005413660046200203f565b62001602565b6200055162001642565b6040516200026f9190620026f6565b620002996200183d565b620002fe6200057b36600462001fee565b6200190a565b62000299620019a5565b620002606200059c366004620023c3565b62001a72565b62000260620005b33660046200220b565b62001b72565b620002fe620005ca36600462001fee565b62001b8c565b60076020528160005260406000208181548110620005ea57fe5b6000918252602090912001546001600160a01b03169150829050565b60036020528160005260406000208181548110620005ea57fe5b3360009081526003602052604090205460609081816001600160401b03811180156200064b57600080fd5b5060405190808252806020026020018201604052801562000676578160200160208202803683370190505b50905060005b82811015620006ed57336000908152600360205260409020805482908110620006a157fe5b9060005260206000200160009054906101000a90046001600160a01b0316828281518110620006cc57fe5b6001600160a01b03909216602092830291909101909101526001016200067c565b509150505b90565b600060053360009081526001602052604090206002015460ff1660068111156200071b57fe5b14620007445760405162461bcd60e51b81526004016200073b906200283b565b60405180910390fd5b336000908152600a602052604090208054839081106200076057fe5b6000918252602090912001546001600160a01b031692915050565b6001602052600090815260409020805460029091015460ff81169061010090046001600160a01b031683565b6000546001600160a01b03163314620007bf57600080fd5b6001600160a01b03811660009081526001602081815260409092208681558551620007f39391909201919086019062001cf8565b508160068111156200080157fe5b6001600160a01b03821660009081526001602081905260409091206002018054909160ff19909116908360068111156200083757fe5b02179055506001600160a01b038116600081815260016020526040908190206002018054610100600160a81b0319166101008402179055517f33a7170f028b1e4f5ba321064a00ed820856a920c7f9c6636fbcf385427b1b0f906200089e90879062002765565b60405180910390a250505050565b60008585858585604051620008c19062001d5c565b620008d195949392919062002692565b604051809103906000f080158015620008ee573d6000803e3d6000fd5b506001600160a01b0396871660009081526005602090815260408220805460018101825590835291200180546001600160a01b03191691909716179095555050505050565b6001600160a01b039081166000908152600860205260409020541690565b3360009081526006602052604090205460609081816001600160401b03811180156200097c57600080fd5b50604051908082528060200260200182016040528015620009a7578160200160208202803683370190505b50905060005b82811015620006ed57336000908152600660205260409020805482908110620009d257fe5b9060005260206000200160009054906101000a90046001600160a01b0316828281518110620009fd57fe5b6001600160a01b0390921660209283029190910190910152600101620009ad565b60043360009081526001602052604090206002015460ff16600681111562000a4257fe5b1462000a625760405162461bcd60e51b81526004016200073b9062002883565b6040516307fb74db60e21b81526000906001600160a01b03851690631fedd36c9062000a93903390600401620025c8565b602060405180830381600087803b15801562000aae57600080fd5b505af115801562000ac3573d6000803e3d6000fd5b505050506040513d601f19601f8201168201806040525081019062000ae99190620022ed565b3360008181526006602090815260408083208054600181018255908452919092200180546001600160a01b0319166001600160a01b03891617905551919250429160008051602062005e3b8339815191529062000b4c908790899088906200265b565b60405180910390a350505050565b60066020528160005260406000208181548110620005ea57fe5b6000856001600160a01b03166001868686866040516000815260200160405260405162000ba594939291906200279f565b6020604051602081039080840390855afa15801562000bc8573d6000803e3d6000fd5b505050602060405103516001600160a01b031614905095945050505050565b6001600160a01b039081166000908152600b60205260409020541690565b62000c0f62001d6a565b6001600160a01b0382166000908152600160208181526040808420815160808101835281548152938101805483518186028101860190945280845294959194868501949192909184015b8282101562000d0a5760008481526020908190208301805460408051601f600260001961010060018716150201909416939093049283018590048502810185019091528181529283018282801562000cf55780601f1062000cc95761010080835404028352916020019162000cf5565b820191906000526020600020905b81548152906001019060200180831162000cd757829003601f168201915b50505050508152602001906001019062000c59565b50505090825250600282015460209091019060ff16600681111562000d2b57fe5b600681111562000d3757fe5b81526002919091015461010090046001600160a01b031660209091015292915050565b600b602052600090815260409020546001600160a01b031681565b60053360009081526001602052604090206002015460ff16600681111562000d9957fe5b14801562000e275750836001600160a01b031663abb428a66040518163ffffffff1660e01b815260040160606040518083038186803b15801562000ddc57600080fd5b505afa15801562000df1573d6000803e3d6000fd5b505050506040513d601f19601f8201168201806040525081019062000e17919062002274565b602001516001600160a01b031633145b62000e465760405162461bcd60e51b81526004016200073b90620027d2565b6040516307fb74db60e21b81526000906001600160a01b03861690631fedd36c9062000e77903390600401620025c8565b602060405180830381600087803b15801562000e9257600080fd5b505af115801562000ea7573d6000803e3d6000fd5b505050506040513d601f19601f8201168201806040525081019062000ecd9190620022ed565b9050806002141562000ffe57336000908152600960209081526040808320805460018101825590845291832090910180546001600160a01b0319166001600160a01b03891690811790915581516355da145360e11b81529151909163abb428a6916004808301926060929190829003018186803b15801562000f4e57600080fd5b505afa15801562000f63573d6000803e3d6000fd5b505050506040513d601f19601f8201168201806040525081019062000f89919062002274565b516001600160a01b03161462000ffe5760405163d7dcbe3b60e01b81526001600160a01b0385169063d7dcbe3b9062000fc9908890339060040162002616565b600060405180830381600087803b15801562000fe457600080fd5b505af115801562000ff9573d6000803e3d6000fd5b505050505b42336001600160a01b031660008051602062005e3b8339815191528588866040516200102d939291906200265b565b60405180910390a35050505050565b60046020528160005260406000208181548110620005ea57fe5b60096020528160005260406000208181548110620005ea57fe5b6000546060906001600160a01b031633146200108b57600080fd5b8260068111156200109857fe5b6001600160a01b03831660009081526001602081905260409091206002018054909160ff1990911690836006811115620010ce57fe5b02179055505060408051808201909152600d81526c526f6c6520557064617465642160981b60208201525b92915050565b604051630a57332d60e31b81526001600160a01b038516906352b99968906200112d908690600401620025c8565b600060405180830381600087803b1580156200114857600080fd5b505af11580156200115d573d6000803e3d6000fd5b505050506001600160a01b0383811660009081526004602090815260408083208054600181018255908452919092200180546001600160a01b03191692871692909217909155514290339060008051602062005e3b8339815191529062000b4c908690899087906200265b565b600060043360009081526001602052604090206002015460ff166006811115620011f057fe5b14620012105760405162461bcd60e51b81526004016200073b90620028c9565b3360009081526007602052604090208054839081106200076057fe5b3360009081526005602052604090205460609081816001600160401b03811180156200125757600080fd5b5060405190808252806020026020018201604052801562001282578160200160208202803683370190505b50905060005b82811015620006ed57336000908152600560205260409020805482908110620012ad57fe5b9060005260206000200160009054906101000a90046001600160a01b0316828281518110620012d857fe5b6001600160a01b039092166020928302919091019091015260010162001288565b60056020528160005260406000208181548110620005ea57fe5b6008602052600090815260409020546001600160a01b031681565b42836001600160a01b03167f22561ca0666e99052dd8231a6c5c337204ed5658c357aa6afcd53c207acfac6786858560405162000b4c939291906200265b565b60023360009081526001602052604090206002015460ff1660068111156200139257fe5b14620013b25760405162461bcd60e51b81526004016200073b9062002910565b60008211620013d55760405162461bcd60e51b81526004016200073b9062002957565b8160011415620014475760405163638e9a3d60e01b81526001600160a01b0384169063638e9a3d906200140d903390600401620025c8565b600060405180830381600087803b1580156200142857600080fd5b505af11580156200143d573d6000803e3d6000fd5b5050505062001528565b81600214156200147f5760405163ac42a41560e01b81526001600160a01b0384169063ac42a415906200140d903390600401620025c8565b8160031415620014b957604051630887851b60e31b81526001600160a01b0382169063443c28d8906200140d908690339060040162002616565b8160041415620015285760405163298abd8d60e11b81526001600160a01b038216906353157b1a90620014f3908690339060040162002616565b600060405180830381600087803b1580156200150e57600080fd5b505af115801562001523573d6000803e3d6000fd5b505050505b505050565b3360009081526003602052604090205490565b600060053360009081526001602052604090206002015460ff1660068111156200156657fe5b14620015865760405162461bcd60e51b81526004016200073b906200283b565b50336000908152600a602052604090205490565b42826001600160a01b03167f31f87de04fd141167b8131be7a8ccb2bac63361a15671c96d90c39ddc9ef909d85878560405162000b4c939291906200265b565b60028181548110620015e857fe5b6000918252602090912001546001600160a01b0316905081565b42846001600160a01b03167f9151271dfe612a18bf915ee1609e6f94f62fd775c704a0ae2ef091519f0c9b3985858560405162000b4c939291906200265b565b60025460609081906001600160401b03811180156200166057600080fd5b506040519080825280602002602001820160405280156200169e57816020015b6200168a62001d6a565b815260200190600190039081620016805790505b50905060005b60025481101562001837576001600060028381548110620016c157fe5b60009182526020808320909101546001600160a01b0316835282810193909352604091820181208251608081018452815481526001820180548551818802810188019096528086529195929486840194909391929184015b82821015620017ca5760008481526020908190208301805460408051601f6002600019610100600187161502019094169390930492830185900485028101850190915281815292830182828015620017b55780601f106200178957610100808354040283529160200191620017b5565b820191906000526020600020905b8154815290600101906020018083116200179757829003601f168201915b50505050508152602001906001019062001719565b50505090825250600282015460209091019060ff166006811115620017eb57fe5b6006811115620017f757fe5b81526002919091015461010090046001600160a01b031660209091015282518390839081106200182357fe5b6020908102919091010152600101620016a4565b50905090565b3360009081526009602052604090205460609081816001600160401b03811180156200186857600080fd5b5060405190808252806020026020018201604052801562001893578160200160208202803683370190505b50905060005b82811015620006ed57336000908152600960205260409020805482908110620018be57fe5b9060005260206000200160009054906101000a90046001600160a01b0316828281518110620018e957fe5b6001600160a01b039092166020928302919091019091015260010162001899565b6000833384846040516200191e9062001d92565b6200192d949392919062002630565b604051809103906000f0801580156200194a573d6000803e3d6000fd5b5033600090815260076020908152604080832080546001810182559084528284200180546001600160a01b039586166001600160a01b0319918216811790925598909416835260089091529020805490951617909355505050565b3360009081526004602052604090205460609081816001600160401b0381118015620019d057600080fd5b50604051908082528060200260200182016040528015620019fb578160200160208202803683370190505b50905060005b82811015620006ed5733600090815260046020526040902080548290811062001a2657fe5b9060005260206000200160009054906101000a90046001600160a01b031682828151811062001a5157fe5b6001600160a01b039092166020928302919091019091015260010162001a01565b600080336002334260405160200162001a8d92919062002588565b60408051601f198184030181529082905262001aa991620025aa565b602060405180830381855afa15801562001ac7573d6000803e3d6000fd5b5050506040513d601f19601f8201168201806040525081019062001aec9190620022ed565b60601c8787878760405162001b019062001da0565b62001b1296959493929190620025dc565b604051809103906000f08015801562001b2f573d6000803e3d6000fd5b503360009081526003602090815260408220805460018101825590835291200180546001600160a01b0319166001600160a01b0383161790559695505050505050565b600a6020528160005260406000208181548110620005ea57fe5b60053360009081526001602052604090206002015460ff16600681111562001bb057fe5b14801562001c3e5750826001600160a01b031663abb428a66040518163ffffffff1660e01b815260040160606040518083038186803b15801562001bf357600080fd5b505afa15801562001c08573d6000803e3d6000fd5b505050506040513d601f19601f8201168201806040525081019062001c2e919062002274565b602001516001600160a01b031633145b62001c5d5760405162461bcd60e51b81526004016200073b90620027d2565b60008333848460405162001c719062001dae565b62001c80949392919062002630565b604051809103906000f08015801562001c9d573d6000803e3d6000fd5b50336000908152600a6020908152604080832080546001810182559084528284200180546001600160a01b039586166001600160a01b03199182168117909255989094168352600b9091529020805490951617909355505050565b82805482825590600052602060002090810192821562001d4a579160200282015b8281111562001d4a578251805162001d3991849160209091019062001dbc565b509160200191906001019062001d19565b5062001d5892915062001e3d565b5090565b611ac08062002a3f83390190565b6040805160808101825260008082526060602083015290918201908152600060209091015290565b6103b880620044ff83390190565b6111c880620048b783390190565b6103bc8062005a7f83390190565b828054600181600116156101000203166002900490600052602060002090601f016020900481019282601f1062001dff57805160ff191683800117855562001e2f565b8280016001018555821562001e2f579182015b8281111562001e2f57825182559160200191906001019062001e12565b5062001d5892915062001e65565b620006f291905b8082111562001d5857600062001e5b828262001e82565b5060010162001e44565b620006f291905b8082111562001d58576000815560010162001e6c565b50805460018160011615610100020316600290046000825580601f1062001eaa575062001eca565b601f01602090049060005260206000209081019062001eca919062001e65565b50565b8035620010f98162002a28565b600082601f83011262001eeb578081fd5b813562001f0262001efc82620029ca565b620029a3565b81815291506020808301908481018184028601820187101562001f2457600080fd5b60005b8481101562001f5057813562001f3d8162002a28565b8452928201929082019060010162001f27565b505050505092915050565b600082601f83011262001f6c578081fd5b81356001600160401b0381111562001f82578182fd5b62001f97601f8201601f1916602001620029a3565b915080825283602082850101111562001faf57600080fd5b8060208401602084013760009082016020015292915050565b60006020828403121562001fda578081fd5b813562001fe78162002a28565b9392505050565b60008060006060848603121562002003578182fd5b8335620020108162002a28565b92506020840135620020228162002a28565b91506040840135620020348162002a28565b809150509250925092565b6000806000806080858703121562002055578081fd5b8435620020628162002a28565b93506020850135620020748162002a28565b92506040850135620020868162002a28565b915060608501356001600160401b03811115620020a1578182fd5b620020af8782880162001f5b565b91505092959194509250565b600080600060608486031215620020d0578283fd5b8335620020dd8162002a28565b92506020840135620020ef8162002a28565b915060408401356001600160401b038111156200210a578182fd5b620021188682870162001f5b565b9150509250925092565b600080600080600060a086880312156200213a578081fd5b8535620021478162002a28565b94506020860135935060408601356001600160401b03808211156200216a578283fd5b6200217889838a0162001eda565b945060608801359350608088013591508082111562002195578283fd5b50620021a48882890162001eda565b9150509295509295909350565b600080600080600060a08688031215620021c9578081fd5b8535620021d68162002a28565b945060208601359350604086013560ff81168114620021f3578182fd5b94979396509394606081013594506080013592915050565b600080604083850312156200221e578182fd5b82356200222b8162002a28565b946020939093013593505050565b6000806000606084860312156200224e578081fd5b83356200225b8162002a28565b9250602084013591506040840135620020348162002a28565b60006060828403121562002286578081fd5b82601f83011262002295578081fd5b620022a16060620029a3565b808385606086011115620022b3578384fd5b835b6003811015620022e2578151620022cc8162002a28565b84526020938401939190910190600101620022b5565b509095945050505050565b600060208284031215620022ff578081fd5b5051919050565b600080600080608085870312156200231c578182fd5b843593506020808601356001600160401b038111156200233a578384fd5b80870188601f8201126200234c578485fd5b803591506200235f62001efc83620029ca565b82815283810190828501875b858110156200239857620023858d88843588010162001f5b565b845292860192908601906001016200236b565b5050809750505050505060408501359150620023b8866060870162001ecd565b905092959194509250565b60008060008060808587031215620023d9578182fd5b84359350602085013592506040850135620023f48162002a28565b91506060850135620024068162002a28565b939692955090935050565b60006020828403121562002423578081fd5b5035919050565b600080604083850312156200243d578182fd5b823591506020830135620024518162002a28565b809150509250929050565b6001600160a01b03169052565b6000815180845260208085019450808401835b83811015620024a35781516001600160a01b0316875295820195908201906001016200247c565b509495945050505050565b60008151808452620024c8816020860160208601620029ea565b601f01601f19169290920160200192915050565b620024e78162002a1d565b9052565b6000608083018251845260208084015160808287015282815180855260a08801915060a084820289010194508383018693505b818410156200255257609f198987030183526200253d868251620024ae565b9550600193909301929184019184016200251e565b505050505060408301516200256b6040860182620024dc565b5060608301516200258060608601826200245c565b509392505050565b60609290921b6bffffffffffffffffffffffff19168252601482015260340190565b60008251620025be818460208701620029ea565b9190910192915050565b6001600160a01b0391909116815260200190565b6001600160a01b0396871681529486166020860152604085019390935260608401919091528316608083015290911660a082015260c00190565b6001600160a01b0392831681529116602082015260400190565b6001600160a01b03948516815292841660208401529083166040830152909116606082015260800190565b6001600160a01b038481168252831660208201526060604082018190526000906200268990830184620024ae565b95945050505050565b600060018060a01b038716825285602083015260a06040830152620026bb60a083018662002469565b8460608401528281036080840152620026d5818562002469565b98975050505050505050565b60006020825262001fe7602083018462002469565b6000602080830181845280855180835260408601915060408482028701019250838701855b828110156200274d57603f198886030184526200273a858351620024eb565b945092850192908501906001016200271b565b5092979650505050505050565b901515815260200190565b90815260200190565b83815260608101620027808462002a1d565b60208201939093526001600160a01b0391909116604090910152919050565b93845260ff9290921660208401526040830152606082015260800190565b60006020825262001fe76020830184620024ae565b60208082526043908201527f4f6e6c79204469737472696275746f72206f722063757272656e74206f776e6560408201527f72206f66207061636b6167652063616e2063616c6c20746869732066756e637460608201526234b7b760e91b608082015260a00190565b60208082526028908201527f4f6e6c79204469737472696275746f722043616e2063616c6c207468697320666040820152673ab731ba34b7b71760c11b606082015260800190565b60208082526026908201527f4f6e6c792057686f6c6573616c65722063616e2063616c6c20746869732066756040820152653731ba34b7b760d11b606082015260800190565b60208082526027908201527f4f6e6c792057686f6c6573616c65722043616e2063616c6c20746869732066756040820152663731ba34b7b71760c91b606082015260800190565b60208082526027908201527f4f6e6c79205472616e73706f727465722063616e2063616c6c207468697320666040820152663ab731ba34b7b760c91b606082015260800190565b6020808252601d908201527f5472616e73706f72746572205479706520697320696e636f7272656374000000604082015260600190565b60006020825262001fe76020830184620024eb565b6040518181016001600160401b0381118282101715620029c257600080fd5b604052919050565b60006001600160401b03821115620029e0578081fd5b5060209081020190565b60005b8381101562002a07578181015183820152602001620029ed565b8381111562002a17576000848401525b50505050565b6007811062001eca57fe5b6001600160a01b038116811462001eca57600080fdfe60806040523480156200001157600080fd5b5060405162001ac038038062001ac0833981810160405260a08110156200003757600080fd5b815160208301516040808501805191519395929483019291846401000000008211156200006357600080fd5b9083019060208201858111156200007957600080fd5b82518660208202830111640100000000821117156200009757600080fd5b82525081516020918201928201910280838360005b83811015620000c6578181015183820152602001620000ac565b505050509050016040526020018051906020019092919080516040519392919084640100000000821115620000fa57600080fd5b9083019060208201858111156200011057600080fd5b82518660208202830111640100000000821117156200012e57600080fd5b82525081516020918201928201910280838360005b838110156200015d57818101518382015260200162000143565b50505050919091016040525050600080546001600160a01b0389166001600160a01b03199182168117909255600480549091169091179055505060018490558251620001b190600290602086019062000268565b5060088290558051620001cc90600390602084019062000268565b50600580546001600160a01b03199081169091556006805490911690556009805460ff1916905560405160009086906200020690620002d2565b6001600160a01b03909116815260405190819003602001906000f08015801562000234573d6000803e3d6000fd5b50600980546001600160a01b0390921661010002610100600160a81b0319909216919091179055506200030a945050505050565b828054828255906000526020600020908101928215620002c0579160200282015b82811115620002c057825182546001600160a01b0319166001600160a01b0390911617825560209092019160019091019062000289565b50620002ce929150620002e0565b5090565b610b638062000f5d83390190565b6200030791905b80821115620002ce5780546001600160a01b0319168155600101620002e7565b90565b610c43806200031a6000396000f3fe608060405234801561001057600080fd5b50600436106100b45760003560e01c8063ac42a41511610071578063ac42a415146101d3578063c8f5f189146101f9578063d2f3fcc71461021f578063e002c8a514610227578063e138d4ce14610341578063f5c0e38314610367576100b4565b80631fedd36c146100b95780632f1d7588146100f157806393a668b71461012157806396991e7914610147578063aab3a9d61461016d578063abb428a614610193575b600080fd5b6100df600480360360208110156100cf57600080fd5b50356001600160a01b0316610395565b60408051918252519081900360200190f35b61011f6004803603604081101561010757600080fd5b506001600160a01b03813581169160200135166105c0565b005b61011f6004803603602081101561013757600080fd5b50356001600160a01b0316610649565b61011f6004803603602081101561015d57600080fd5b50356001600160a01b03166106b6565b61011f6004803603602081101561018357600080fd5b50356001600160a01b03166106d8565b61019b61072a565b6040518082606080838360005b838110156101c05781810151838201526020016101a8565b5050505090500191505060405180910390f35b61011f600480360360208110156101e957600080fd5b50356001600160a01b0316610765565b61011f6004803603602081101561020f57600080fd5b50356001600160a01b03166108e6565b6100df61094f565b61022f610968565b604051808a6001600160a01b03166001600160a01b031681526020018981526020018060200188815260200180602001876001600160a01b03166001600160a01b03168152602001868152602001856001600160a01b03166001600160a01b03168152602001846001600160a01b03166001600160a01b0316815260200183810383528a818151815260200191508051906020019060200280838360005b838110156102e55781810151838201526020016102cd565b50505050905001838103825288818151815260200191508051906020019060200280838360005b8381101561032457818101518382015260200161030c565b505050509050019b50505050505050505050505060405180910390f35b61011f6004803603602081101561035757600080fd5b50356001600160a01b0316610a9e565b61011f6004803603604081101561037d57600080fd5b506001600160a01b0381358116916020013516610ac0565b6005546000906001600160a01b03838116911614806103c157506006546001600160a01b038381169116145b6103fc5760405162461bcd60e51b8152600401808060200182810382526035815260200180610b6d6035913960400191505060405180910390fd5b60095460019060ff16600681111561041057fe5b101561045f576040805162461bcd60e51b8152602060048201526019602482015278141c9bd91d58dd081b9bdd081c1a58dad959081d5c081e595d603a1b604482015290519081900360640190fd5b6005546001600160a01b03838116911614801561048c5750600160095460ff16600681111561048a57fe5b145b15610510576009805460ff1916600390811790915560055481546001600160a01b03909116919060001981019081106104c157fe5b60009182526020918290200154604080516002815260039381019390935280516001600160a01b03909216923092600080516020610b4d833981519152929181900390910190a45060016105bb565b6006546001600160a01b03838116911614801561053d5750600260095460ff16600681111561053b57fe5b145b156105bb576009805460ff19166004179055600654600380546001600160a01b0390921691600019810190811061057057fe5b60009182526020918290200154604080516003815260049381019390935280516001600160a01b03909216923092600080516020610b4d833981519152929181900390910190a45060025b919050565b6006546001600160a01b0382811691161461060c5760405162461bcd60e51b8152600401808060200182810382526023815260200180610bc46023913960400191505060405180910390fd5b600780546001600160a01b0319166001600160a01b03841617905560055b6009805460ff1916600183600681111561064057fe5b02179055505050565b6006546001600160a01b038281169116146106955760405162461bcd60e51b8152600401808060200182810382526023815260200180610bc46023913960400191505060405180910390fd5b60045b6009805460ff191660018360068111156106ae57fe5b021790555050565b600680546001600160a01b0319166001600160a01b0392909216919091179055565b600380546001810182556000919091527fc2575a0e9e593c00f959f8c92f12db2869c3395a3b0502d05e2516446f71f85b0180546001600160a01b0319166001600160a01b0392909216919091179055565b610732610b2e565b50604080516060810182526005546001600160a01b03908116825260065481166020830152600754169181019190915290565b60038054600019810190811061077757fe5b6000918252602090912001546001600160a01b038281169116146107cc5760405162461bcd60e51b8152600401808060200182810382526027815260200180610be76027913960400191505060405180910390fd5b600060095460ff1660068111156107df57fe5b14610831576040805162461bcd60e51b815260206004820181905260248201527f5061636b616765206d757374206265206174204d616e7566616374757265722e604482015290519081900360640190fd5b6005546001600160a01b031615610894576009805460ff1916600190811790915560055460408051838152602081019390935280516001600160a01b0392831693928516923092600080516020610b4d83398151915292918290030190a46108e3565b6009805460ff191660029081179091556006546040805160018152602081019390935280516001600160a01b0392831693928516923092600080516020610b4d83398151915292918290030190a45b50565b6007546001600160a01b03828116911614610948576040805162461bcd60e51b815260206004820181905260248201527f5468697320437573746f6d6572206973206e6f74204173736f6369617465642e604482015290519081900360640190fd5b6006610698565b60095460009060ff16600681111561096357fe5b905090565b6004546001546008546006805460095460009586956060958795879587958695869586956001600160a01b03928316959194600294919360039391169160ff16908111156109b257fe5b6009546005548654604080516020808402820181019092528281526101009094046001600160a01b0390811694931692918991830182828015610a1e57602002820191906000526020600020905b81546001600160a01b03168152600190910190602001808311610a00575b5050505050965084805480602002602001604051908101604052809291908181526020018280548015610a7a57602002820191906000526020600020905b81546001600160a01b03168152600190910190602001808311610a5c575b50505050509450985098509850985098509850985098509850909192939495969798565b600580546001600160a01b0319166001600160a01b0392909216919091179055565b6005546001600160a01b03828116911614610b0c5760405162461bcd60e51b8152600401808060200182810382526022815260200180610ba26022913960400191505060405180910390fd5b600680546001600160a01b0319166001600160a01b038416179055600261062a565b6040518060600160405280600390602082028036833750919291505056fe7e89c4b1a4e2b51aae84eb1f90e8a34cb792ece5ac5cb63db4830c891220b28d4f6e6c792057686f6c6573616c6572206f72204469737472696275746f722063616e2063616c6c20746869732066756e6374696f6e746869732057686f6c6573616c6572206973206e6f74204173736f6369617465642e54686973204469737472696275746f72206973206e6f74204173736f6369617465642e4f6e6c79205472616e73706f727465722063616e2063616c6c20746869732066756e6374696f6ea2646970667358221220c7cd7536ff419faf14b51d41db7f5f952031663ac6fd2461a366f29fa694fa3464736f6c634300060600336080604052600060025534801561001557600080fd5b50604051610b63380380610b6383398101604081905261003491610059565b600080546001600160a01b0319166001600160a01b0392909216919091179055610087565b60006020828403121561006a578081fd5b81516001600160a01b0381168114610080578182fd5b9392505050565b610acd806100966000396000f3fe608060405234801561001057600080fd5b506004361061004c5760003560e01c806327506f53146100515780633626a3681461006f57806378ce1365146100845780639ace38c214610099575b600080fd5b6100596100bf565b60405161006691906108b6565b60405180910390f35b61008261007d3660046107bb565b6102c7565b005b61008c61050b565b6040516100669190610a76565b6100ac6100a7366004610853565b610511565b604051610066979695949392919061097f565b600254606090818167ffffffffffffffff811180156100dd57600080fd5b5060405190808252806020026020018201604052801561011757816020015b61010461066a565b8152602001906001900390816100fc5790505b50905060005b828110156102bf57600081815260016020818152604092839020835160e08101855281548152818401546001600160a01b0390811682850152600280840154909116828701526003830154606083015260048301805487516101009782161597909702600019011691909104601f81018590048502860185019096528585529094919360808601939092908301828280156101f95780601f106101ce576101008083540402835291602001916101f9565b820191906000526020600020905b8154815290600101906020018083116101dc57829003601f168201915b505050918352505060058201805460408051602060026001851615610100026000190190941693909304601f810184900484028201840190925281815293820193929183018282801561028d5780601f106102625761010080835404028352916020019161028d565b820191906000526020600020905b81548152906001019060200180831161027057829003601f168201915b505050505081526020016006820154815250508282815181106102ac57fe5b602090810291909101015260010161011d565b509150505b90565b60025442906103a6576040805160e0810182528881526001600160a01b038089166020808401918252898316848601908152606085018a8152608086018a815260a087018a905260c08701899052600280546000908152600180875299902088518155955198860180549988166001600160a01b03199a8b1617905592519285018054939096169290971691909117909355915160038201559251805192939261037792600485019201906106a5565b5060a082015180516103939160058401916020909101906106a5565b5060c082015181600601559050506104b5565b6002546000190160009081526001602052604090205484146103e35760405162461bcd60e51b81526004016103da90610a3f565b60405180910390fd5b6040805160e0810182528881526001600160a01b038089166020808401918252898316848601908152606085018a8152608086018a815260a087018a905260c08701899052600280546000908152600180875299902088518155955198860180549988166001600160a01b03199a8b1617905592519285018054939096169290971691909117909355915160038201559251805192939261048a92600485019201906106a5565b5060a082015180516104a69160058401916020909101906106a5565b5060c082015181600601559050505b6002805460010190556040517f30d01d358fb0899fe4d50947b2e9301c952d9eed09b14c7ecdcbeed4434557c4906104fa90899089908990899087908a908a906109df565b60405180910390a150505050505050565b60025481565b60016020818152600092835260409283902080548184015460028084015460038501546004860180548a516101009a8216159a909a02600019011693909304601f810188900488028901880190995288885293976001600160a01b039384169793909116959394938301828280156105ca5780601f1061059f576101008083540402835291602001916105ca565b820191906000526020600020905b8154815290600101906020018083116105ad57829003601f168201915b5050505060058301805460408051602060026001851615610100026000190190941693909304601f810184900484028201840190925281815294959493509083018282801561065a5780601f1061062f5761010080835404028352916020019161065a565b820191906000526020600020905b81548152906001019060200180831161063d57829003601f168201915b5050505050908060060154905087565b6040805160e08101825260008082526020820181905291810182905260608082018390526080820181905260a082015260c081019190915290565b828054600181600116156101000203166002900490600052602060002090601f016020900481019282601f106106e657805160ff1916838001178555610713565b82800160010185558215610713579182015b828111156107135782518255916020019190600101906106f8565b5061071f929150610723565b5090565b6102c491905b8082111561071f5760008155600101610729565b600082601f83011261074d578081fd5b813567ffffffffffffffff80821115610764578283fd5b604051601f8301601f191681016020018281118282101715610784578485fd5b60405282815292508284830160200186101561079f57600080fd5b8260208601602083013760006020848301015250505092915050565b60008060008060008060c087890312156107d3578182fd5b8635955060208701356107e581610a7f565b945060408701356107f581610a7f565b935060608701359250608087013567ffffffffffffffff80821115610818578384fd5b6108248a838b0161073d565b935060a0890135915080821115610839578283fd5b5061084689828a0161073d565b9150509295509295509295565b600060208284031215610864578081fd5b5035919050565b60008151808452815b8181101561089057602081850181015186830182015201610874565b818111156108a15782602083870101525b50601f01601f19169290920160200192915050565b60208082528251828201819052600091906040908185019080840286018301878501865b8381101561097157888303603f19018552815180518452878101516001600160a01b03908116898601528782015116878501526060808201519085015260808082015160e082870181905291906109338388018261086b565b91505060a09150818301518682038388015261094f828261086b565b60c09485015197909401969096525050948701949250908601906001016108da565b509098975050505050505050565b8781526001600160a01b038781166020830152861660408201526060810185905260e0608082018190526000906109b89083018661086b565b82810360a08401526109ca818661086b565b9150508260c083015298975050505050505050565b8781526001600160a01b03878116602083015286166040820152606081018590526080810184905260e060a08201819052600090610a1f9083018561086b565b82810360c0840152610a31818561086b565b9a9950505050505050505050565b6020808252601b908201527f5472616e73616374696f6e206572726f72206f63637572726564210000000000604082015260600190565b90815260200190565b6001600160a01b0381168114610a9457600080fd5b5056fea264697066735822122027f5c5971153096749971ce0db362f7b719b6d0a3eb80fe7fdbecdfe4bdcba9e64736f6c63430006060033608060405234801561001057600080fd5b506040516103b83803806103b88339818101604052608081101561003357600080fd5b50805160208201516040830151606090930151600080546001600160a01b03199081166001600160a01b03948516908117835560018054831696861696909617909555600280548216909517909455600380548516958416959095179094556004805490931691161760ff60a01b191690556103039081906100b590396000f3fe608060405234801561001057600080fd5b50600436106100415760003560e01c8063443c28d814610046578063d2f3fcc714610076578063d7dcbe3b14610090575b600080fd5b6100746004803603604081101561005c57600080fd5b506001600160a01b03813581169160200135166100be565b005b61007e610190565b60408051918252519081900360200190f35b610074600480360360408110156100a657600080fd5b506001600160a01b03813581169160200135166101b0565b6003546001600160a01b0382811691161461010a5760405162461bcd60e51b815260040180806020018281038252602f81526020018061029f602f913960400191505060405180910390fd5b6004805460ff60a01b1916600160a01b178082556002546040805163f5c0e38360e01b81526001600160a01b03938416948101949094529082166024840152519084169163f5c0e38391604480830192600092919082900301818387803b15801561017457600080fd5b505af1158015610188573d6000803e3d6000fd5b505050505050565b600454600090600160a01b900460ff1660028111156101ab57fe5b905090565b6004546001600160a01b038281169116146101fc5760405162461bcd60e51b815260040180806020018281038252603081526020018061026f6030913960400191505060405180910390fd5b600480546002919060ff60a01b1916600160a01b830217905550816001600160a01b03166393a668b7826040518263ffffffff1660e01b815260040180826001600160a01b03166001600160a01b03168152602001915050600060405180830381600087803b15801561017457600080fdfe4f6e6c79204173736f6369617465642072656365697665722063616e2063616c6c20746869732066756e6374696f6e2e4f6e6c79204173736f63696174656420736869707065722063616e2063616c6c20746869732066756e6374696f6e2ea2646970667358221220587a025ac99ac6740e398fcd410e67405a0ea4772d3c22da876523468c2de2ab64736f6c63430006060033608060405234801561001057600080fd5b506040516111c83803806111c883398101604081905261002f91610100565b600080546001600160a01b03199081166001600160a01b0389811691821784556001805484168a831617905560028890556003879055600480548416878316179055600580548416918616919091179055600680549092161760ff60a01b19169055604051829061009f906100f3565b6100a99190610173565b604051809103906000f0801580156100c5573d6000803e3d6000fd5b50600880546001600160a01b0319166001600160a01b03929092169190911790555061019f95505050505050565b610b638061066583390190565b60008060008060008060c08789031215610118578182fd5b865161012381610187565b602088015190965061013481610187565b809550506040870151935060608701519250608087015161015481610187565b60a088015190925061016581610187565b809150509295509295509295565b6001600160a01b0391909116815260200190565b6001600160a01b038116811461019c57600080fd5b50565b6104b7806101ae6000396000f3fe608060405234801561001057600080fd5b50600436106100575760003560e01c806350e073bc1461005c57806352b9996814610071578063638e9a3d146100845780636b099dca1461009757806380723520146100b5575b600080fd5b61006f61006a3660046102e8565b6100d0565b005b61006f61007f3660046102e8565b6100f2565b61006f6100923660046102e8565b6101cd565b61009f610293565b6040516100ac9190610478565b60405180910390f35b6100bd6102b3565b6040516100ac9796959493929190610316565b600580546001600160a01b0319166001600160a01b0392909216919091179055565b6005546001600160a01b038281169116146101285760405162461bcd60e51b815260040161011f90610398565b60405180910390fd5b6001600654600160a01b900460ff16600281111561014257fe5b1461015f5760405162461bcd60e51b815260040161011f90610365565b6006805460ff60a01b1916600160a11b179055600554600454600180546040516001600160a01b039485169493841693909116917f7e89c4b1a4e2b51aae84eb1f90e8a34cb792ece5ac5cb63db4830c891220b28d916101c29190600290610357565b60405180910390a450565b6004546001600160a01b038281169116146101fa5760405162461bcd60e51b815260040161011f90610428565b6000600654600160a01b900460ff16600281111561021457fe5b146102315760405162461bcd60e51b815260040161011f906103f1565b6006805460ff60a01b1916600160a01b179055600554600454600180546040516001600160a01b039485169493841693909116917f7e89c4b1a4e2b51aae84eb1f90e8a34cb792ece5ac5cb63db4830c891220b28d916101c291908190610357565b600654600090600160a01b900460ff1660028111156102ae57fe5b905090565b6001546002546003546006546004546005546008546001600160a01b0396871697959694959385169492831693918316921690565b6000602082840312156102f9578081fd5b81356001600160a01b038116811461030f578182fd5b9392505050565b6001600160a01b03978816815260208101969096526040860194909452918516606085015284166080840152831660a083015290911660c082015260e00190565b918252602082015260400190565b602080825260199082015278141c9bd91d58dd081b9bdd081c1a58dad959081d5c081e595d603a1b604082015260600190565b60208082526039908201527f4f6e6c79204d616e756661637475726572206f6620746865207061636b6167656040820152782063616e20726563656965766520746865207061636b61676560381b606082015260800190565b6020808252601c908201527f5061636b616765206d75737420626520617420537570706c6965722e00000000604082015260600190565b60208082526030908201527f4f6e6c79207472616e73706f72746572206f6620746865207061636b6167652060408201526f63616e207069636b207061636b61676560801b606082015260800190565b9081526020019056fea26469706673582212208273d9839a595ea7bc6cfd8d0adb8fa4feedf8dc7b14584749bbea839607981064736f6c634300060600336080604052600060025534801561001557600080fd5b50604051610b63380380610b6383398101604081905261003491610059565b600080546001600160a01b0319166001600160a01b0392909216919091179055610087565b60006020828403121561006a578081fd5b81516001600160a01b0381168114610080578182fd5b9392505050565b610acd806100966000396000f3fe608060405234801561001057600080fd5b506004361061004c5760003560e01c806327506f53146100515780633626a3681461006f57806378ce1365146100845780639ace38c214610099575b600080fd5b6100596100bf565b60405161006691906108b6565b60405180910390f35b61008261007d3660046107bb565b6102c7565b005b61008c61050b565b6040516100669190610a76565b6100ac6100a7366004610853565b610511565b604051610066979695949392919061097f565b600254606090818167ffffffffffffffff811180156100dd57600080fd5b5060405190808252806020026020018201604052801561011757816020015b61010461066a565b8152602001906001900390816100fc5790505b50905060005b828110156102bf57600081815260016020818152604092839020835160e08101855281548152818401546001600160a01b0390811682850152600280840154909116828701526003830154606083015260048301805487516101009782161597909702600019011691909104601f81018590048502860185019096528585529094919360808601939092908301828280156101f95780601f106101ce576101008083540402835291602001916101f9565b820191906000526020600020905b8154815290600101906020018083116101dc57829003601f168201915b505050918352505060058201805460408051602060026001851615610100026000190190941693909304601f810184900484028201840190925281815293820193929183018282801561028d5780601f106102625761010080835404028352916020019161028d565b820191906000526020600020905b81548152906001019060200180831161027057829003601f168201915b505050505081526020016006820154815250508282815181106102ac57fe5b602090810291909101015260010161011d565b509150505b90565b60025442906103a6576040805160e0810182528881526001600160a01b038089166020808401918252898316848601908152606085018a8152608086018a815260a087018a905260c08701899052600280546000908152600180875299902088518155955198860180549988166001600160a01b03199a8b1617905592519285018054939096169290971691909117909355915160038201559251805192939261037792600485019201906106a5565b5060a082015180516103939160058401916020909101906106a5565b5060c082015181600601559050506104b5565b6002546000190160009081526001602052604090205484146103e35760405162461bcd60e51b81526004016103da90610a3f565b60405180910390fd5b6040805160e0810182528881526001600160a01b038089166020808401918252898316848601908152606085018a8152608086018a815260a087018a905260c08701899052600280546000908152600180875299902088518155955198860180549988166001600160a01b03199a8b1617905592519285018054939096169290971691909117909355915160038201559251805192939261048a92600485019201906106a5565b5060a082015180516104a69160058401916020909101906106a5565b5060c082015181600601559050505b6002805460010190556040517f30d01d358fb0899fe4d50947b2e9301c952d9eed09b14c7ecdcbeed4434557c4906104fa90899089908990899087908a908a906109df565b60405180910390a150505050505050565b60025481565b60016020818152600092835260409283902080548184015460028084015460038501546004860180548a516101009a8216159a909a02600019011693909304601f810188900488028901880190995288885293976001600160a01b039384169793909116959394938301828280156105ca5780601f1061059f576101008083540402835291602001916105ca565b820191906000526020600020905b8154815290600101906020018083116105ad57829003601f168201915b5050505060058301805460408051602060026001851615610100026000190190941693909304601f810184900484028201840190925281815294959493509083018282801561065a5780601f1061062f5761010080835404028352916020019161065a565b820191906000526020600020905b81548152906001019060200180831161063d57829003601f168201915b5050505050908060060154905087565b6040805160e08101825260008082526020820181905291810182905260608082018390526080820181905260a082015260c081019190915290565b828054600181600116156101000203166002900490600052602060002090601f016020900481019282601f106106e657805160ff1916838001178555610713565b82800160010185558215610713579182015b828111156107135782518255916020019190600101906106f8565b5061071f929150610723565b5090565b6102c491905b8082111561071f5760008155600101610729565b600082601f83011261074d578081fd5b813567ffffffffffffffff80821115610764578283fd5b604051601f8301601f191681016020018281118282101715610784578485fd5b60405282815292508284830160200186101561079f57600080fd5b8260208601602083013760006020848301015250505092915050565b60008060008060008060c087890312156107d3578182fd5b8635955060208701356107e581610a7f565b945060408701356107f581610a7f565b935060608701359250608087013567ffffffffffffffff80821115610818578384fd5b6108248a838b0161073d565b935060a0890135915080821115610839578283fd5b5061084689828a0161073d565b9150509295509295509295565b600060208284031215610864578081fd5b5035919050565b60008151808452815b8181101561089057602081850181015186830182015201610874565b818111156108a15782602083870101525b50601f01601f19169290920160200192915050565b60208082528251828201819052600091906040908185019080840286018301878501865b8381101561097157888303603f19018552815180518452878101516001600160a01b03908116898601528782015116878501526060808201519085015260808082015160e082870181905291906109338388018261086b565b91505060a09150818301518682038388015261094f828261086b565b60c09485015197909401969096525050948701949250908601906001016108da565b509098975050505050505050565b8781526001600160a01b038781166020830152861660408201526060810185905260e0608082018190526000906109b89083018661086b565b82810360a08401526109ca818661086b565b9150508260c083015298975050505050505050565b8781526001600160a01b03878116602083015286166040820152606081018590526080810184905260e060a08201819052600090610a1f9083018561086b565b82810360c0840152610a31818561086b565b9a9950505050505050505050565b6020808252601b908201527f5472616e73616374696f6e206572726f72206f63637572726564210000000000604082015260600190565b90815260200190565b6001600160a01b0381168114610a9457600080fd5b5056fea264697066735822122027f5c5971153096749971ce0db362f7b719b6d0a3eb80fe7fdbecdfe4bdcba9e64736f6c63430006060033608060405234801561001057600080fd5b506040516103bc3803806103bc8339818101604052608081101561003357600080fd5b50805160208201516040830151606090930151600080546001600160a01b03199081166001600160a01b03948516908117835560018054831696861696909617909555600280548216909517909455600380548516958416959095179094556004805490931691161760ff60a01b191690556103079081906100b590396000f3fe608060405234801561001057600080fd5b50600436106100415760003560e01c806353157b1a14610046578063c0114d0614610076578063f7addc3e14610090575b600080fd5b6100746004803603604081101561005c57600080fd5b506001600160a01b03813581169160200135166100be565b005b61007e610190565b60408051918252519081900360200190f35b610074600480360360408110156100a657600080fd5b506001600160a01b03813581169160200135166101b0565b6003546001600160a01b0382811691161461010a5760405162461bcd60e51b815260040180806020018281038252603381526020018061026f6033913960400191505060405180910390fd5b6004805460ff60a01b1916600160a01b17808255600254604080516305e3aeb160e31b81526001600160a01b039384169481019490945290821660248401525190841691632f1d758891604480830192600092919082900301818387803b15801561017457600080fd5b505af1158015610188573d6000803e3d6000fd5b505050505050565b600454600090600160a01b900460ff1660028111156101ab57fe5b905090565b6004546001600160a01b038281169116146101fc5760405162461bcd60e51b81526004018080602001828103825260308152602001806102a26030913960400191505060405180910390fd5b600480546002919060ff60a01b1916600160a01b830217905550816001600160a01b031663c8f5f189826040518263ffffffff1660e01b815260040180826001600160a01b03166001600160a01b03168152602001915050600060405180830381600087803b15801561017457600080fdfe4f6e6c79204173736f636961746564207472616e73706f727465722063616e2063616c6c20746869732066756e6374696f6e2e4f6e6c79204173736f6369617465642072656365697665722063616e2063616c6c20746869732066756e6374696f6e2ea2646970667358221220a86b89b23ec745810041f6031f15e601debe8d064111769ee962da3c0db2a36b64736f6c63430006060033cfbd3a658e0a38877312e3f5767ddb0c6541620d7bd0368d43e0b94a55d9876ea26469706673582212204afb222bc4a890390d01e5109b16fa181896381680915e145661ecad46e1937b64736f6c63430006060033",
  "immutableReferences": {},
  "source": "pragma solidity >=0.4.21 <0.7.0;\npragma experimental ABIEncoderV2;\n\nimport './RawMaterial.sol';\n// import './Supplier.sol';\n// import './Transporter.sol';\nimport './Medicine.sol';\n// import './Manufacturer.sol';\nimport './MedicineW_D.sol';\n// import './Wholesaler.sol';\nimport './MedicineD_C.sol';\n// import './Distributor.sol';\n// import './Customer.sol';\n\n\n//// New supply chain : supplier -> transporter -> manufacturer -> transporter -> whole-saler -> transporter -> distributor -> transporter -> customer/hospital/pharmacy\n\ncontract SupplyChain {\n    \n    address Owner;\n    \n    constructor() public {\n        Owner = msg.sender;\n    }\n    \n    modifier onlyOwner() {\n        require(Owner == msg.sender);\n        _;\n    }\n    \n    modifier checkUser(address addr) {\n        require(addr == msg.sender);\n        _;\n    }\n    \n    enum roles {\n        noRole,\n        supplier,\n        transporter,\n        manufacturer,\n        wholesaler,\n        distributor,\n        customer\n    }\n    \n    \n    //////////////// Events ////////////////////\n    \n    event UserRegister(address indexed _address, bytes32 name);\n    event buyEvent(address buyer, address indexed seller, address packageAddr, bytes signature, uint indexed timestamp);\n    event respondEvent(address indexed buyer, address seller, address packageAddr, bytes signature, uint indexed timestamp);\n    event sendEvent(address seller, address buyer, address indexed packageAddr, bytes signature, uint indexed timestamp);\n    event receivedEvent(address indexed buyer, address seller, address packageAddr, bytes signature, uint indexed timestamp);\n    \n    \n    //////////////// Event functions (All entities) ////////////////////\n\n    \n    function requestProduct(address buyer, address seller, address packageAddr, bytes memory signature) public {\n        emit buyEvent(buyer, seller, packageAddr, signature, now);\n    }\n    \n    function respondToEntity(address buyer, address seller, address packageAddr, bytes memory signature) public {\n        emit respondEvent(buyer, seller, packageAddr, signature, now);\n    }\n    \n    function sendPackageToEntity(address buyer, address seller, address packageAddr, bytes memory signature) public {\n        emit sendEvent(seller, buyer, packageAddr, signature, now);\n    }\n    \n    /////////////// Users (Only Owner Executable) //////////////////////\n    \n    struct userData {\n        bytes32 name;\n        string[] userLoc;\n        roles role;\n        address userAddr;\n    }\n    \n    mapping (address => userData) public userInfo;\n    address[] public allAddresses;\n    \n    function registerUser(bytes32 name, string[] memory loc, uint role, address _userAddr) public onlyOwner {\n        userInfo[_userAddr].name = name;\n        userInfo[_userAddr].userLoc = loc;\n        userInfo[_userAddr].role = roles(role);\n        userInfo[_userAddr].userAddr = _userAddr;\n        \n        emit UserRegister(_userAddr, name);\n    }\n    \n    function changeUserRole(uint _role, address _addr) public onlyOwner returns(string memory) {\n        userInfo[_addr].role = roles(_role);\n       return \"Role Updated!\";\n    }\n    \n    function getUserInfo(address _address) public view returns(\n        userData memory\n        ) {\n        return userInfo[_address];\n    }\n\n    function getAllUsers() public view returns (userData[] memory) {\n        userData[] memory allUsers = new userData[](allAddresses.length);\n        for (uint i = 0; i < allAddresses.length; i++) {\n            allUsers[i] = userInfo[allAddresses[i]];\n        }\n       return allUsers;\n    }\n    \n\n    /////////////// Supplier //////////////////////\n    \n    mapping (address => address[]) public supplierRawMaterials;\n    \n    \n    function createRawMaterialPackage(\n        bytes32 _description,\n        uint _quantity,\n        address _transporterAddr,\n        address _manufacturerAddr\n    ) public returns(address) {\n\n        RawMaterial rawMaterial = new RawMaterial(\n            msg.sender,\n            address(bytes20(sha256(abi.encodePacked(msg.sender, now)))),\n            _description,\n            _quantity,\n            _transporterAddr,\n            _manufacturerAddr\n        );\n        \n        supplierRawMaterials[msg.sender].push(address(rawMaterial));\n        return address(rawMaterial);\n    }\n    \n    function getNoOfPackagesOfSupplier() public view returns(uint) {\n        return supplierRawMaterials[msg.sender].length;\n    }\n    \n    \n    function getAllPackages() public view returns(address[] memory) {\n        uint len = supplierRawMaterials[msg.sender].length;\n        address[] memory ret = new address[](len);\n        for (uint i = 0; i < len; i++) {\n            ret[i] = supplierRawMaterials[msg.sender][i];\n        }\n        return ret;\n    }\n    \n    ///////////////  Transporter ///////////////\n    \n    \n    function transporterHandlePackage(\n        address _addr,\n        uint transportertype,\n        address cid\n        ) public {\n            \n        require(\n            userInfo[msg.sender].role == roles.transporter,\n            \"Only Transporter can call this function\"\n        );\n        require(\n            transportertype > 0,\n            \"Transporter Type is incorrect\"\n        );\n        \n        if(transportertype == 1) { \n            /// Supplier -> Manufacturer\n            RawMaterial(_addr).pickPackage(msg.sender);\n        } else if(transportertype == 2) { \n            /// Manufacturer -> Wholesaler\n            Medicine(_addr).pickMedicine(msg.sender);\n        } else if(transportertype == 3) {   \n            // Wholesaler to Distributor\n            MedicineW_D(cid).pickWD(_addr, msg.sender);\n        } else if(transportertype == 4) {   \n            // Distrubutor to Customer\n            MedicineD_C(cid).pickDC(_addr, msg.sender);\n        }\n    }\n    \n    \n    ///////////////  Manufacturer ///////////////\n    \n    mapping (address => address[]) public manufacturerRawMaterials;\n    mapping (address => address[]) public manufacturerMedicines;\n    \n    \n    function manufacturerReceivedPackage(\n        address _addr,\n        address _manufacturerAddress,\n        address _sellerAddr,\n        bytes memory signature\n        ) public {\n            \n        RawMaterial(_addr).receivedPackage(_manufacturerAddress);\n        manufacturerRawMaterials[_manufacturerAddress].push(_addr);\n        emit receivedEvent(msg.sender, _sellerAddr, _addr, signature, now);\n    }\n    \n    function getAllRawMaterials() public view returns(address[] memory) {\n        uint len = manufacturerRawMaterials[msg.sender].length;\n        address[] memory ret = new address[](len);\n        for (uint i = 0; i < len; i++) {\n            ret[i] = manufacturerRawMaterials[msg.sender][i];\n        }\n        return ret;\n    }\n\n    function manufacturerCreatesMedicine(\n        address _manufacturerAddr,\n        bytes32 _description,\n        address[] memory _rawAddr,\n        uint _quantity,\n        address[] memory _transporterAddr\n        ) public {\n            \n        Medicine _medicine = new Medicine(\n            _manufacturerAddr,\n            _description,\n            _rawAddr,\n            _quantity,\n            _transporterAddr\n        );\n        \n        manufacturerMedicines[_manufacturerAddr].push(address(_medicine));\n        \n    }\n    \n    function getAllCreatedMedicines() public view returns(address[] memory) {\n        uint len = manufacturerMedicines[msg.sender].length;\n        address[] memory ret = new address[](len);\n        for (uint i = 0; i < len; i++) {\n            ret[i] = manufacturerMedicines[msg.sender][i];\n        }\n        return ret;\n    }\n    \n\n    ///////////////  Wholesaler  ///////////////\n\n    mapping(address => address[]) public MedicinesAtWholesaler;\n    mapping(address => address[]) public MedicineWtoD;\n    mapping(address => address) public MedicineWtoDTxContract;\n    \n    function wholesalerReceivedMedicine(\n        address _address,\n        address _sellerAddr,\n        bytes memory signature\n        ) public {\n        require(\n            userInfo[msg.sender].role == roles.wholesaler,\n            \"Only Wholesaler can call this function\"\n        );\n        \n        uint rtype = Medicine(_address).receivedMedicine(msg.sender);\n        MedicinesAtWholesaler[msg.sender].push(_address);\n        emit receivedEvent(msg.sender, _sellerAddr, _address, signature, now);\n    }\n    \n    function transferMedicineWtoD(\n            address _address,\n            address transporter,\n            address receiver\n        ) public {\n            \n        MedicineW_D wd = new MedicineW_D(\n            _address,\n            msg.sender,\n            transporter,\n            receiver\n        );\n        MedicineWtoD[msg.sender].push(address(wd));\n        MedicineWtoDTxContract[_address] = address(wd);\n    }\n\n    \n    function getBatchIdByIndexWD(uint index) public view returns(address packageID) {\n        require(\n            userInfo[msg.sender].role == roles.wholesaler,\n            \"Only Wholesaler Can call this function.\"\n        );\n        return MedicineWtoD[msg.sender][index];\n    }\n\n    function getSubContractWD(address _address) public view returns (address SubContractWD) {\n        return MedicineWtoDTxContract[_address];\n    }\n    \n    function getAllMedicinesAtWholesaler() public view returns(address[] memory) {\n        uint len = MedicinesAtWholesaler[msg.sender].length;\n        address[] memory ret = new address[](len);\n        for (uint i = 0; i < len; i++) {\n            ret[i] = MedicinesAtWholesaler[msg.sender][i];\n        }\n        return ret;\n    }\n\n\n//     ///////////////  Distributor  ///////////////\n\n    mapping(address => address[]) public MedicinesAtDistributor;\n    mapping(address => address[]) public MedicineDtoC;\n    mapping(address => address) public MedicineDtoCTxContract;\n\n\n    function distributorReceivedMedicine(\n      address _address,\n      address cid,\n      address _sellerAddr,\n      bytes memory signature\n    ) public {\n        require(\n            userInfo[msg.sender].role == roles.distributor &&\n            msg.sender == Medicine(_address).getWDC()[1],\n            \"Only Distributor or current owner of package can call this function\"  \n        );\n        \n        uint rtype = Medicine(_address).receivedMedicine(msg.sender);\n        if(rtype == 2){\n            MedicinesAtDistributor[msg.sender].push(_address);\n            if(Medicine(_address).getWDC()[0] != address(0)){\n                MedicineW_D(cid).receiveWD(_address, msg.sender);\n            }\n        }\n        emit receivedEvent(msg.sender, _sellerAddr, _address, signature, now);\n    }\n\n    function distributorTransferMedicinetoCustomer(\n        address _address,\n        address transporter,\n        address receiver\n    ) public {\n        require(\n            userInfo[msg.sender].role == roles.distributor &&\n            msg.sender == Medicine(_address).getWDC()[1],\n            \"Only Distributor or current owner of package can call this function\"\n        );\n        MedicineD_C dp = new MedicineD_C(\n            _address,\n            msg.sender,\n            transporter,\n            receiver\n        );\n        MedicineDtoC[msg.sender].push(address(dp));\n        MedicineDtoCTxContract[_address] = address(dp);\n    }\n    \n    function getBatchesCountDC() public view returns (uint count){\n        require(\n            userInfo[msg.sender].role == roles.distributor,\n            \"Only Distributor Can call this function.\"\n        );\n        return MedicineDtoC[msg.sender].length;\n    }\n\n    function getBatchIdByIndexDC(uint index) public view returns(address packageID) {\n        require(\n            userInfo[msg.sender].role == roles.distributor,\n            \"Only Distributor Can call this function.\"\n        );\n        return MedicineDtoC[msg.sender][index];\n    }\n\n    function getSubContractDC(address _address) public view returns (address SubContractDP) {\n        return MedicineDtoCTxContract[_address];\n    }\n    \n    function getAllMedicinesAtDistributor() public view returns(address[] memory) {\n        uint len = MedicinesAtDistributor[msg.sender].length;\n        address[] memory ret = new address[](len);\n        for (uint i = 0; i < len; i++) {\n            ret[i] = MedicinesAtDistributor[msg.sender][i];\n        }\n        return ret;\n    }\n    \n    \n//     ///////////////  Customer  ///////////////\n    \n    \n//     function customerReceivedMedicine(\n//         address _address,\n//         address cid\n//     ) public {\n//         require(\n//             userInfo[msg.sender].role == roles.customer,\n//             \"Only Customer Can call this function.\"\n//         );\n//         medicineRecievedAtCustomer(_address, cid);\n//     }\n\n//     function updateStatus(\n//         address _address,\n//         uint Status\n//     ) public {\n//         require(\n//             userInfo[msg.sender].role == roles.customer &&\n//             msg.sender == Medicine(_address).getWDC()[2],\n//             \"Only Customer or current owner of package can call this function\"\n//         );\n//         require(sale[_address] == salestatus(1), \"Medicine Must be at Customer\");\n        \n//         updateSaleStatus(_address, Status);\n//     }\n\n//     function getSalesInfo(\n//         address _address\n//     ) public\n//     view\n//     returns(\n//         uint Status \n//     ){\n//         return salesInfo(_address);\n//     }\n\n    \n//     function getBatchesCountC() public view returns(uint count) {\n//         require(\n//             userInfo[msg.sender].role == roles.customer,\n//             \"Only Wholesaler or current owner of package can call this function\"\n//         );\n//         return  MedicineBatchAtCustomer[msg.sender].length;\n//     }\n\n//     function getBatchIdByIndexC(uint index) public view returns(address _address) {\n//         require(\n//             userInfo[msg.sender].role == roles.customer,\n//             \"Only Wholesaler or current owner of package can call this function\"\n//         );\n//         return MedicineBatchAtCustomer[msg.sender][index];\n//     }\n    \n    function verify(address p, bytes32 hash, uint8 v, bytes32 r, bytes32 s) public pure returns(bool) {\n        return ecrecover(hash, v, r, s) == p;\n    }   \n}\n    ",
  "sourcePath": "C:\\Users\\rohan\\OneDrive\\Desktop\\MedNet2\\counterfeit-medicine-master\\testing\\Testing.sol",
  "compiler": {
    "name": "solc",
    "version": "0.6.6+commit.6c089d02.Emscripten.clang"
  },
  "schemaVersion": "3.4.16",
  "updatedAt": "2024-04-05T15:48:16.020Z",
  "devdoc": {
    "methods": {}
  },
  "userdoc": {
    "methods": {
      "requestProduct(address,address,address,bytes)": {
        "notice": "///////////// Event functions (All entities) ////////////////////"
      },
      "transporterHandlePackage(address,uint256,address)": {
        "notice": "////////////  Transporter ///////////////"
      }
    },
    "notice": "/ New supply chain : supplier -> transporter -> manufacturer -> transporter -> whole-saler -> transporter -> distributor -> transporter -> customer/hospital/pharmacy"
  }
}